:1000000015C1000044C1000042C1000040C1000011
:100010003EC100003CC100003AC1000038C10000F0
:1000200036C100000C9460080C9460080C946008C1
:100030002EC100002CC100002AC1000028C1000010
:1000400026C1000024C1000022C1000020C1000020
:100050001EC100001CC100001AC1000056C70000EC
:1000600016C1000037C600000CC6000010C1000019
:100070000EC100000CC100000AC1000008C1000050
:1000800006C1000004C1000002C1000000C1000060
:10009000CFC50000A4C50000FAC00000F8C00000F1
:1000A000F6C00000F4C00000F2C00000F0C0000084
:1000B000EEC00000ECC00000EAC00000E8C0000094
:1000C000E6C00000E4C00000E2C00000E0C00000A4
:1000D000DEC00000DCC00000DAC00000D8C00000B4
:1000E000D6C0000089058C057B057F058505C30505
:1000F000900594059A059E05A205A805AC05B005D6
:10010000C305B605BA05BE0500002100240027007E
:100110002A002D0030003300010100000401070116
:100120000A01010210202008081020401020408001
:1001300002010201080402010102040810204080AB
:100140008040201008040201800402018040201039
:100150000804020108040201010204081020408082
:100160000102040810204080050505050705080860
:100170000808020202020A0A080804040404010131
:100180000101010101010303030303030303040746
:1001900007070C0C0C0C0C0C0C0C020202020606DD
:1001A0000606060606060B0B0B0B0B0B0B0B0000D3
:1001B0002200250028002B002E003100340002010F
:1001C0000000050108010B010000200023002600AB
:1001D00029002C002F00320000010000030106015D
:1001E000090100000A0B02090C0D0E0807030401A7
:1001F00000000000000000000000000000000000FF
:1002000000000000000000000000000000001211CB
:1002100010000000000000000000000000000000CE
:100220000000000000000000CE18F51A11241FBEC7
:10023000CFEFD1E2DEBFCDBF00E00CBF28E0A6E2E9
:10024000B5E001C01D92A93DB207E1F715E0A0E0BD
:10025000B2E0E4EBFBE300E00BBF02C007900D92BD
:10026000A632B107D9F711E0C5E1D1E000E006C040
:1002700021970109802FFE010E947F1BC431D10705
:1002800080E00807A9F70E94170C0C94C91DB8CE8E
:10029000EF92FF920F931F93CF93DF93EC016230A5
:1002A00018F08F8588608F876B8B1C8A80E48D8B1C
:1002B00080E18E8B80E58F8B61E08C81A3D58D8171
:1002C0008F3F11F061E09ED561E08E819BD57E016C
:1002D00087E0E80EF11C00E010E08F8584FD03C08C
:1002E00084E090E002C088E090E00817190744F429
:1002F00061E0F70181917F0185D50F5F1F4FEDCF41
:100300008BE39DE00197F1F760E08C8136D560E0EA
:100310008E8133D58D818F3F11F060E02ED56F85B2
:1003200064FD19C063E0CE0145D60BE416E4C801B4
:100330000197F1F763E0CE013DD6C8010197F1F7CF
:1003400063E0CE0137D683E592E00197F1F762E0F2
:10035000CE0130D613C06062CE01A9D68BE496E4FC
:100360000197F1F76F856062CE01A1D683E592E037
:100370000197F1F76F856062CE0199D66F85606253
:10038000CE0195D684E0888B6CE0CE0190D6CE016C
:1003900090D682E0898B66E0CE01DF91CF911F91EC
:1003A0000F91FF90EF9083C6643008F063E0909166
:1003B0005608691710F06FEF690FE62FF0E0ED5B5C
:1003C000F74F9489682F690F606883E498E06FC6DF
:1003D000CF93DF93EC0164E275E00E94A50B80915E
:1003E000930690919406E5E9F6E060E070E0681706
:1003F00079078CF4219131912130310549F4CE01F6
:100400000E940A0B6EE174E0CE010E944C0B03C007
:100410006F5F7F4FECCF2C813D81C901019782171F
:10042000930740F49D838C8328813981F901E80F7B
:10043000F91F1082CE01DF91CF9108958F929F9284
:10044000AF92BF92CF92DF92EF92FF92809001071E
:1004500090900207A0900307B09004072FEF821638
:100460009206A206B20609F1C0900507D0900607D1
:10047000E0900707F09008073CD5C80CD91CEA1C8F
:10048000FB1CA7019601261B370B480B590BCA0111
:10049000B90128EE33E040E050E00E945D1BC90145
:1004A00037FF05C080E090E002C08FEF9FEFFF9024
:1004B000EF90DF90CF90BF90AF909F908F90089576
:1004C000CF92DF92EF92FF920F931F93CF93DF9320
:1004D0006B01770FEE08FF08F7FE1BC0EC016DE221
:1004E0000E94010C8C0144275527BA014C195D0963
:1004F0006E097F092AE0CE010E94B90B800F911F7F
:10050000DF91CF911F910F91FF90EF90DF90CF90EF
:1005100008952AE0B701A601DF91CF911F910F91B5
:10052000FF90EF90DF90CF900C94B90B62E275E0F2
:1005300086ED95E001C6CF93DF93BC0186ED95E093
:10054000FBD5EC01F3DF8C0F9D1FDF91CF91089558
:10055000CF93DF9380919B0690919C06EC01CD5642
:10056000D94F2E8D213021F460E0B4D51E8E04C009
:1005700061E0B0D581E08E8FDF91CF910895CF9368
:10058000DF93BC0186ED95E00E94090CEC01CEDF03
:100590008C0F9D1FDF91CF910895AF92BF92CF92A4
:1005A000DF92EF92FF920F931F93CF93DF93CDB71C
:1005B000DEB72C970FB6F894DEBF0FBECDBFFC019F
:1005C00081E080936E07808191819093D60780931C
:1005D000D507828193819093D8078093D707809124
:1005E000810790E09093D4078093D3071092E2079D
:1005F0001092E307009709F45AC0C080D18067E0E9
:1006000070E040E050E0EE24E394F12C8E010F5FA7
:100610001F4F20E030E0D901AE0DBF1DA259B84FE9
:100620005396AC91AA2EB12CD801AD92BD928D01FA
:100630002F5F3F4F2630310571F729813A812C1504
:100640003D05A9F4AB81BC8122813381A217B30798
:1006500071F4AD81BE8124813581A217B30739F4CD
:10066000AF81B88526813781A217B30749F04F5F64
:100670005F4F48175907DCF47B016A5F7F4FC6CF95
:1006800038D460937D0770937E0780937F079093A3
:10069000800789859A85019719F481E08093E207A4
:1006A0008B859C85019719F481E08093E3072C9654
:1006B0000FB6F894DEBF0FBECDBFDF91CF911F9173
:1006C0000F91FF90EF90DF90CF90BF90AF90089583
:1006D000CF92DF92EF92FF92CF93DF936C01990F4D
:1006E000EE08FF08F7FE16C06DE286ED95E00E9469
:1006F000010CEC0144275527BA014C195D096E091C
:100700007F092AE086ED95E00E94B90B7C01EC0E92
:10071000FD1E08C02AE0B701A60186ED95E00E9403
:10072000B90B7C0103DF8E0D9F1DDF91CF91FF90F0
:10073000EF90DF90CF9008950F931F93CF93C82F22
:1007400083E590E034D405E318E060E0F8018485A7
:1007500014D38C2F8E77806823D480E021D4C82FC7
:1007600061E0F801848509D31AD48C2FCF911F91B1
:100770000F9108950F931F93CF93DF93082F162F98
:1007800083E590E014D4C5E3D8E060E08C85F5D231
:10079000802F8E7705D4812F03D461E08C85EDD234
:1007A000DF91CF911F910F91FAC3CF92DF92FF9209
:1007B0000F931F93CF93DF931F92CDB7DEB7082F10
:1007C000162F83E590E07983F2D360E080914108B1
:1007D000D4D282E1E5D3F12EC12E7981D72E8C2D92
:1007E0008F19801728F4F60181916F01D9D3F7CFC3
:1007F00061E080914108C1D20F90DF91CF911F91AC
:100800000F91FF90DF90CF90CAC31F93CF93DF93D8
:100810001F92CDB7DEB7182F69838EDF6981682BF1
:10082000812F0F90DF91CF911F91A4CFEF92FF9274
:100830000F931F93CF93DF937C01C62F8A0160E053
:1008400082E098DF64E08AE095DF60E884E1DDDF44
:10085000B7018C2FAADF63E082E08CDFC8E8D3E128
:100860008AE06ADF82FD04C02197D1F783E00CC0E3
:1008700060E082E07FDF84E45FDFF801808382E470
:100880005BDFF801818380E0DF91CF911F910F91B1
:10089000FF90EF900895FC01A089B1898C91A68901
:1008A000B78982FD0FC09C91818D8F5F8F73228DE0
:1008B000821749F0218DDF01A20FB11D5D969C9337
:1008C000818F08958C910895FC01538D448D252FBF
:1008D00030E0842F90E0821B930B541710F0CF96DA
:1008E000089501970895FC01918D828D981761F00C
:1008F000828DDF01A80FB11D5D968C91928D9F5F57
:100900009F73928F90E008958FEF9FEF0895FC0101
:10091000918D828D981731F0828DE80FF11D858DB4
:1009200090E008958FEF9FEF0895FC01918D228D47
:10093000892F90E0805C9F4F821B91098F739927CC
:10094000089589E395E0F1DF21E0892B09F420E0A7
:10095000822F089586ED95E0E8DF21E0892B09F4E8
:1009600020E0822F0895FC01848DDF01A80FB11DC6
:10097000A35ABF4F2C91848D90E001968F739927D5
:10098000848FA689B7892C93A089B1898C918064C2
:100990008C93938D848D981306C00288F389E02D83
:1009A00080818F7D80830895EF92FF920F931F9334
:1009B000CF93DF93EC0181E0888F9B8D8C8D981312
:1009C00005C0E889F989808185FD23C0F62E0B8D4D
:1009D00010E00F5F1F4F0F731127E02E8C8DE81270
:1009E0000BC00FB607FCFACFE889F989808185FF33
:1009F000F5CFCE01B8DFF2CF8B8DFE01E80FF11DF0
:100A0000E35AFF4FF0820B8FEA89FB898081806275
:100A100007C0EE89FF896083E889F9898081806455
:100A2000808381E090E0DF91CF911F910F91FF9043
:100A3000EF900895CF93DF93EC01888D8823C1F068
:100A4000EA89FB89808185FD05C0A889B9898C91D7
:100A500086FD0EC00FB607FCF5CF808185FFF2CF73
:100A6000A889B9898C9185FFEDCFCE017CDFE8CFD5
:100A7000DF91CF91089580E090E0892B19F06ADF33
:100A8000811120C080E090E0892B19F05ADF81119C
:100A90001CC080E090E0892B41F080E090E0892B41
:100AA00021F00E940000811113C080E090E0892BAA
:100AB000A1F080E090E0892B81F00E94000081117C
:100AC0000AC008950E940000DDCF0E940000E1CF1F
:100AD0000E940000EACF0C940000089590E0FC0111
:100AE0003197E231F10508F04EC08827EE58FF4FEC
:100AF0008F4F0C947F1B809180008F7703C0809173
:100B000080008F7D80938000089580918000877F92
:100B1000F9CF84B58F7702C084B58F7D84BD0895E9
:100B20008091B0008F7703C08091B0008F7D80935B
:100B3000B0000895809190008F7707C08091900059
:100B40008F7D03C080919000877F809390000895EF
:100B50008091A0008F7707C08091A0008F7D03C097
:100B60008091A000877F8093A0000895809120014C
:100B70008F7707C0809120018F7D03C08091200175
:100B8000877F8093200108953FB7F8948091D10822
:100B90009091D208A091D308B091D40826B5A89B13
:100BA00005C02F3F19F00196A11DB11D3FBFBA2FFF
:100BB000A92F982F8827820F911DA11DB11DBC015F
:100BC000CD0142E0660F771F881F991F4A95D1F724
:100BD0000895089580E090E008950E94AC1D1F9252
:100BE0000F920FB60F9211240BB60F922F933F93D3
:100BF0004F935F936F937F938F939F93AF93BF9325
:100C0000EF93FF9389E395E0AEDEFF91EF91BF9103
:100C1000AF919F918F917F916F915F914F913F9194
:100C20002F910F900BBE0F900FBE0F901F90189535
:100C30001F920F920FB60F9211240BB60F922F93A3
:100C40003F934F935F936F937F938F939F93AF9354
:100C5000BF93EF93FF9389E395E01DDEFF91EF9142
:100C6000BF91AF919F918F917F916F915F914F91C4
:100C70003F912F910F900BBE0F900FBE0F901F90C2
:100C800018951F920F920FB60F9211240BB60F9268
:100C90002F933F934F935F936F937F938F939F9384
:100CA000AF93BF93EF93FF9386ED95E05CDEFF91EA
:100CB000EF91BF91AF919F918F917F916F915F91D4
:100CC0004F913F912F910F900BBE0F900FBE0F9041
:100CD0001F9018951F920F920FB60F9211240BB60A
:100CE0000F922F933F934F935F936F937F938F93C5
:100CF0009F93AF93BF93EF93FF9386ED95E0CBDD8A
:100D0000FF91EF91BF91AF919F918F917F916F91E3
:100D10005F914F913F912F910F900BBE0F900FBE9F
:100D20000F901F901895CF93DF93282F30E0F90193
:100D3000EE51FE4F8491F901EE5DFE4FD491F90121
:100D4000E859FE4FC491CC2389F08111C7DEEC2F06
:100D5000F0E0EE0FFF1FE853FE4FA591B491EC9128
:100D6000ED2381E090E021F480E002C080E090E09B
:100D7000DF91CF910895862FD6CF1F93CF93DF9326
:100D8000282F30E0F901EE51FE4F8491F901EE5D1C
:100D9000FE4FD491F901E859FE4FC491CC23C1F024
:100DA000162F81119BDEEC2FF0E0EE0FFF1FE255B6
:100DB000FE4FA591B4918FB7F894111105C09C9185
:100DC000ED2FE095E92302C0EC91ED2BEC938FBF62
:100DD000DF91CF911F910895862F642FCECFCF93AF
:100DE000DF93EC0160E08E81C8DF61E08E81C5DFBA
:100DF00060E08E81C2DF8BE891E00197F1F7DF912F
:100E0000CF910895CF93DF9390E0FC01EE5DFE4F0C
:100E10002491FC01E859FE4F8491882361F190E010
:100E2000880F991FFC01E85FFE4FC591D491FC012A
:100E3000E255FE4FA591B491611109C09FB7F89496
:100E40008881209582238883EC912E230BC0623009
:100E500061F49FB7F8943881822F8095832388832B
:100E6000EC912E2B2C939FBF06C08FB7F894E8818E
:100E70002E2B28838FBFDF91CF910895862F642F6B
:100E8000C1CF8F929F92AF92BF92CF92DF92EF929B
:100E9000FF926B017C0178DE4B015C01C114D1042F
:100EA000E104F104E9F070DEDC01CB018819990955
:100EB000AA09BB09883E9340A105B10578F321E05A
:100EC000C21AD108E108F10888EE880E83E0981E66
:100ED000A11CB11CC114D104E104F10421F7DECF3F
:100EE000FF90EF90DF90CF90BF90AF909F908F904A
:100EF00008952FB7F8946091CD087091CE08809135
:100F0000CF089091D0082FBF08951F920F920FB66F
:100F10000F9211242F933F938F939F93AF93BF937F
:100F20008091CD089091CE08A091CF08B091D008C3
:100F30003091CC0823E0230F2D3720F40196A11D1A
:100F4000B11D05C026E8230F0296A11DB11D2093F7
:100F5000CC088093CD089093CE08A093CF08B0938F
:100F6000D0088091D1089091D208A091D308B09177
:100F7000D4080196A11DB11D8093D1089093D20889
:100F8000A093D308B093D408BF91AF919F918F9154
:100F90003F912F910F900FBE0F901F9018950895BD
:100FA0008EBD00000DB407FEFDCF8EB508958CBD3B
:100FB0009DBD0895CF92DF92EF92FF920F931F9302
:100FC000CF93DF937C016C0187E0C80ED11CC0E099
:100FD000D0E0062F10E0B8010C2E02C07595679581
:100FE0000A94E2F76170F60181916F01C6DE2196E5
:100FF000C430D10581F7C701DF91CF911F910F91C7
:10100000FF90EF90DF90CF90EACECF92DF92EF92F9
:10101000FF920F931F93CF93DF93EC01F62E642F73
:101020008C81ABDE8D818F3F11F060E0A6DE8F8575
:101030000F2D10E084FF23C06E0187E0C80ED11C85
:10104000E12CF12CB8010E2C02C0759567950A941D
:10105000E2F76170F60181916F018FDEFFEFEF1A09
:10106000FF0A88E0E816F10469F7CE01DF91CF911D
:101070001F910F91FF90EF90DF90CF90B0CEB8010D
:1010800084E0759567958A95E1F7CE0193DF6F2D22
:10109000CE01DF91CF911F910F91FF90EF90DF90E4
:1010A000CF9088CF41E0B1DF81E090E0089540E04B
:1010B000ACCF61E0FCDF8BE39FE10197F1F708958E
:1010C0001F920F920FB60F9211240F900FBE0F9028
:1010D0001F9018950F931F93CF93DF931F92CDB757
:1010E000DEB78C0169830E94341B6981681741F067
:1010F000C8010F90DF91CF911F910F910C943C1B71
:101100000F90DF91CF911F910F9108950F931F932F
:10111000CF93DF938C01C0E0D0E0CE010E94341B5E
:10112000F80181938F012196C035D105B1F7DF9188
:10113000CF911F910F9108956115710579F0FB0111
:1011400001900020E9F73197AF01461B570BDC01F6
:10115000ED91FC910280F381E02D199480E090E004
:10116000089596E0899FD0011124A55AB74F909613
:101170007C936E935F9791E091969C939197909159
:10118000C708E091C808F091C908992339F0309751
:1011900051F0811108C08091770804C0309719F090
:1011A0005C968C9119940895CF92DF92EF92FF9202
:1011B0000F931F93CF93DF936C017A018B01C0E0F3
:1011C000D0E0CE15DF0589F0D8016D918D01D601F3
:1011D000ED91FC910190F081E02DC6011995892BCC
:1011E00011F47E0102C02196ECCFC701DF91CF91AF
:1011F0001F910F91FF90EF90DF90CF9008950F9384
:101200001F93CF93DF93EC0188819981009729F098
:101210002A813B812617370788F48B016F5F7F4F48
:101220000E94C81C009761F0998388831B830A83FE
:101230002C813D81232B11F4FC01108281E001C03F
:1012400080E0DF91CF911F910F9108957F928F924F
:101250009F92AF92BF92CF92DF92EF92FF920F9345
:101260001F93CF93DF934C01F62EEA0159016801D9
:101270000115110519F0F801908101C090E0192FB6
:10128000F0E1EF9E100D112460E082E073DA6FE769
:1012900088E070DA60E884E1B8DAB4018F2D85DA8D
:1012A000612F8AE167DA6CE082E064DA60E88AE163
:1012B000ACDA00ED17E088E03FDA982F907331F454
:1012C00080FD6CC001501109B1F768C08CE034DAC0
:1012D000F82E837109F064C0209709F45BC0A11453
:1012E000B10409F457C084E127DA182FF501808191
:1012F000811708F457C01083112309F443C083E514
:1013000090E055DE60E08091410837DD0FEF010F7E
:1013100082E946DE7C2E8C2E9D2EAA24A394B12C2D
:10132000882D8719801720F581111AC0EE20C1F091
:101330009E2D10E0983048F49501092E01C0220F2F
:101340000A94EAF7122B9F5FF5CF82E929DE212F5D
:101350002095988192238123192F182B188304C07C
:1013600082E91EDEF4018083FFEF8F1A9F0AD8CF37
:10137000C00FD11D80E014DE888361E080914108B8
:10138000FCDC0DDE88E1D8D98770C114D10411F0DE
:10139000F6018083F3FC08C080E007C083E005C04D
:1013A00081E003C084E001C082E0DF91CF911F9112
:1013B0000F91FF90EF90DF90CF90BF90AF909F90F4
:1013C0008F907F9008951F93CF93DF931F92CDB797
:1013D000DEB7182F6983B0D9698160956823812FA2
:1013E0000F90DF91CF911F91C5C986ED95E022DB6B
:1013F000E6EDF5E0A289B3898C918F7E8C93A2896A
:10140000B3898C91877F8C93A289B3898C918F77D4
:101410008C93A289B3898C918F7D8C93828D818FDF
:1014200008950F931F93CF93DF93C82FD62F86E095
:10143000C89FF0011124E55AF74F11A2878D90A1A2
:1014400081309105E1F01CF4892B49F03FC08230D6
:10145000910591F10397D1F560E070E031C066230A
:10146000A9F161E070E08C2F7CDE43DD6093B3086E
:101470007093B4088093B5089093B60827C039DDFF
:101480000091B3081091B4082091B5083091B608C6
:10149000AB01BC01401B510B620B730B8091C50863
:1014A0009091C608A0E0B0E084179507A607B7079B
:1014B00018F462E070E004C0D11108C063E070E08D
:1014C0008C2FDF91CF911F910F914BCEDF91CF9158
:1014D0001F910F910895FC01A089B18982E08C933E
:1014E000A485B5851C92A685B7858FEC8C93108E4C
:1014F000A489B58986E08C93A289B3898C91806197
:101500008C93A289B3898C9188608C93A289B389CA
:101510008C9180688C930288F389E02D80818F7D87
:1015200080830895EF92FF920F931F93CF93DF93E1
:101530001F92CDB7DEB7162F877028E0829FC001BB
:101540001124682F606483E498E07983B0DDE12E94
:101550007981F72E8701085F1F4FF70161917F01A5
:1015600083E498E09FDDE016F106B9F70F90DF9174
:10157000CF911F910F91FF90EF900895FC0124816E
:101580003581232B31F421E061157105A1F0FB01B8
:1015900008C0FC01808191816115710531F421E061
:1015A000FC018081882339F005C00E94B91D21E02B
:1015B000892B09F020E0822F0895EF92FF920F937C
:1015C0001F93CF93DF93FC01248135816115710551
:1015D00011F480E018C041155105A1F07B01EC0128
:1015E0008A01020F131FB8010ADE882391F32881B4
:1015F00039818C819D81B701820F931F0E94C21D8A
:101600001D830C8381E0DF91CF911F910F91FF909B
:10161000EF900895EF92FF920F931F93CF93DF9374
:10162000CDB7DEB728970FB6F894DEBF0FBECDBF9B
:101630007C01CB014AE08E010F5F1F4FB8010E9471
:10164000011BF80101900020E9F73197AF01401B21
:10165000510BB801C701B1DF28960FB6F894DEBF71
:101660000FBECDBFDF91CF911F910F91FF90EF90F3
:101670000895CF93DF931F921F92CDB7DEB7698392
:101680001A8241E050E0BE016F5F7F4F96DF0F90FE
:101690000F90DF91CF9108956115710549F0FB011D
:1016A00001900020E9F73197AF01461B570B85CF1A
:1016B00080E00895CF93DF93EC01888199810097B2
:1016C00011F00E94301C198218821D821C821B821C
:1016D0001A82DF91CF910895EF92FF920F931F939B
:1016E000CF93DF93EC017B018A01BA0188DD811180
:1016F00003C0CE01DFDF07C01D830C83B7018881E3
:1017000099810E94C21DCE01DF91CF911F910F914F
:10171000FF90EF900895CF93DF93EC016115710571
:1017200051F0FB0101900020E9F73197AF01461B12
:10173000570BD2DF01C0BEDFCE01DF91CF910895FC
:10174000FC01808191810C94301CFC01118210827B
:1017500013821282158214826115710549F0FB0112
:1017600001900020E9F73197AF01461B570BB4CF2A
:1017700008954F925F926F927F92EF92FF920F9334
:101780001F93CF93DF93CDB7DEB7A1970FB6F89431
:10179000DEBF0FBECDBF7C01FA01CB0119A2223002
:1017A00008F42AE08E010F5D1F4F422E512C612C50
:1017B000712CBF01A30192010E945D1BF901CA01B6
:1017C000015011096A3014F4605D01C0695CD801F0
:1017D0006C93232B242B252B61F7B801C701ACDCBC
:1017E000A1960FB6F894DEBF0FBECDBFDF91CF91AB
:1017F0001F910F91FF90EF907F906F905F904F90AF
:101800000895DC01ED91FC910190F081E02D199497
:1018100093CCDC01ED91FC91DB0114964D915C9130
:1018200015976D917C910280F381E02D1994CF93EF
:10183000DF93CDB7DEB76D970FB6F894DEBF0FBE5E
:10184000CDBF789484B5826084BD84B5816084BD49
:1018500085B5826085BD85B5816085BD80916E004E
:10186000816080936E00109281008091810082607F
:1018700080938100809181008160809381008091BC
:1018800080008160809380008091B10084608093AB
:10189000B1008091B00081608093B0008091910090
:1018A000826080939100809191008160809391008B
:1018B000809190008160809390008091A10082606F
:1018C0008093A1008091A10081608093A10080910C
:1018D000A00081608093A0008091210182608093AC
:1018E000210180912101816080932101809120015B
:1018F00081608093200180917A00846080937A00D7
:1019000080917A00826080937A0080917A00816071
:1019100080937A0080917A00806880937A00109298
:10192000C10060E372E080E0FDDD68E272E081E02A
:10193000F9DD60E272E082E0F5DD68E172E083E00B
:10194000F1DD60E172E084E0EDDD68E072E085E009
:10195000E9DD60E072E086E0E5DD64E083E498E0E4
:101960000E94480183E498E0A4DB86ED95E0B3DDB6
:1019700089E395E0B0DD1FB7F894809126058111C9
:1019800023C0EDE9F1E08491E7E5F1E09491E82FDF
:10199000F0E0EE0FFF1FE85FFE4FA591B491EC91D0
:1019A000E92319F461E085E3E8D961E085E32ADA07
:1019B0008CB580618CBD8CB580648CBD61E084E3A6
:1019C00021DA61E083E31EDA809126058F5F809340
:1019D00026051FBF61E08091410814DA61E0809123
:1019E0004108CBD961E0809142080CDA809142082D
:1019F0009AD9892B51F461E080914208BED962E303
:101A000070E080E090E03DDA0EC06FE082E00E947E
:101A1000BA0362E370E080E090E033DA82E00E9493
:101A20009C0384FDFBCF60E884E50E94BA0369EA69
:101A300086E50E94BA0363E088E50E94BA0368EE77
:101A40008AE50E94BA0360E48AE20E94BA036DE369
:101A500082E20E94BA0388E20E949C03982F93704E
:101A6000933029F0682F636088E20E94BA038CE407
:101A70000E949C038077803739F060E78CE4A3DC18
:101A800060E78CE40E94050489EB92E00E949B02CF
:101A90006DED72E086ED95E0BBDE1C8A1B8A1E8A26
:101AA0001D8A188E1F8A4AE0BE016F5F7F4F80E556
:101AB00090E00E94011BBE016F5F7F4FCE014396F5
:101AC0002ADE1A8219821C821B821E821D826B8969
:101AD0007C896115710529F04F89588DCE010196D9
:101AE000FBDD47E050E065EE72E0CE01019665DD7A
:101AF000882311F40C94A315CE0101960E94BF0215
:101B0000CE0101961DDECE0143961ADEB5EEEB2E18
:101B1000B7E0FB2E00E010E08AE0C82ED12C570180
:101B2000F70180818A3018F46CE174E008C08A50B3
:101B30008A3518F46DE174E002C06EE174E086ED60
:101B400095E066DEFFEFEF1AFF0AF501408150E0F5
:101B500060E070E02AE086ED95E00BDE0F5F1F4F3E
:101B6000C801B6010E944A1B892B31F400351105CA
:101B700019F00E94960205C06EE174E086ED95E0D2
:101B800047DE0035110559F60E9496028FEB92E070
:101B90000E949B020E9496028DEE92E00E949B02A0
:101BA0008091E407882329F083E093E00E949B0260
:101BB00074C08CE293E00E949B020E949602009106
:101BC000E50710E06CE473E086ED95E021DEB801F6
:101BD00086ED95E00E9460020E94960201151105B3
:101BE00009F45BC0AA24A394B12CE12CF12C6DE183
:101BF00074E086ED95E00CDE64E275E0CE010196BE
:101C0000A4DDE114F10411F0450103C0882483949C
:101C1000912CC12CD12CF601E80DF91DEB51F84F98
:101C20006080712CB301CE010196F4DCFAE06F16EE
:101C300071041CF46AE174E011C0C3010A978A358B
:101C4000910518F46BE174E009C024E6621A71088A
:101C50003CE96316710428F46CE174E0CE0101964E
:101C60001BDD4FEFC41AD40A86E0C816D10499F6DA
:101C7000BE016F5F7F4F86ED95E0CBDD0E9496023F
:101C8000CE0101965DDD9FEFE91AF90AE6E0AE0E9E
:101C9000B11CE016F1060CF4AACF0E94960282EC69
:101CA00092E00E949B0284E593E00E949B02222422
:101CB0002394312C812C912C5401839480913805EC
:101CC0008111F7C681E08093C70813D90091B70846
:101CD0001091B8082091B9083091BA08AB01BC0145
:101CE000401B510B620B730B8091C3089091C40889
:101CF000A0E0B0E084179507A607B70708F007C172
:101D000010E08091C108181758F4E091BD08F091D7
:101D1000BE08E10FF11D62E0808174D81F5FF1CF32
:101D2000512C8091C208581608F05FC0E52CF12CA8
:101D3000E091BF08F091C008EE0DFF1D61E08081C9
:101D400061D8E091BF08F091C008EE0DFF1D60E082
:101D5000808113D8D501C401052C04C0880F991FB8
:101D6000AA1FBB1F0A94D2F73C016C01C094D09407
:101D7000412C8091C108481610F5042D10E0809187
:101D8000BD089091BE08FC01E00FF11F80810E9408
:101D900093060C5F1F4F000F111FF801E55AF74F14
:101DA000892B29F4808191818629972904C080811B
:101DB00091818C219D21918380834394DACFE0919E
:101DC000BF08F091C008EE0DFF1D61E080810E9408
:101DD000BD068091BF089091C008FC01EE0DFF1D6B
:101DE00060E080810FD853949CCFE7E7F8E08FEF55
:101DF0009FEF23813481232B21F4108292838183EE
:101E00001582369628E0E33BF20799F7E12C56E07D
:101E1000F52E8091C108E81608F052C0D12C0E2D85
:101E200010E0000F111F0D59174F2091C208D21654
:101E300008F044C0F801608171810D2C02C07695D4
:101E400067950A94E2F761707727E29E900111246A
:101E50002D0D311DE091BB08F091BC08E20FF31F7E
:101E6000A081EBE5F8E080E0458D568D42175307E1
:101E700011F461701AC08F5F36968A30A9F7672B0C
:101E8000D9F0E7E7F8E080E090E0408141110FC031
:101E9000F89EF001F99EF00D1124E55AF74FA48F3A
:101EA000368F258F10A2178E61E0BBDA05C0019630
:101EB00036968A30910549F7D394B7CFE394A9CFEA
:101EC00080E090E010E0FC01E55AF74F21A12111DC
:101ED00011E006968C339105B1F70BD86093B708E3
:101EE0007093B8088093B9089093BA08112379F0D9
:101EF00080917C08882359F080917A0890917B0822
:101F0000019729F410917708111104C0C5C01092EF
:101F1000C708C2C00E9479076093790770937A0757
:101F200080937B0790937C07C0907D07D0907E07BD
:101F3000E0907F07F0908007DC01CB018C199D09B0
:101F4000AE09BF09C0907507D0907607E09077077B
:101F5000F09078078C159D05AE05BF0508F09CC074
:101F600080916E07882309F497C0612F86ED95E074
:101F700048DC0E94960280916D071813F0C580918D
:101F80006B078111E6C581E080936B07E9E5F7E017
:101F9000119227E0E936F207D9F710926A071092FA
:101FA0006907E0919B06F0919C06ED56F94F868DEE
:101FB000813009F48FC680916C07882309F40DC61F
:101FC00064E275E0CE010196C0DB09E517E0780117
:101FD000F70161917F01662319F0CE01019649DB7B
:101FE000F9E6EF16F7E0FF0699F710926C07F80193
:101FF00011928F01F7E009361F07C9F710926A079F
:102000001092690768E873E0CE010196B7DA882379
:1020100009F4B3C56DE873E0CE01439696DBCE01BB
:1020200001968EDBCE0143960E94BF0264E275E00A
:10203000CE014396A3DA882309F4D6C566EC73E093
:10204000CE0143969BDA882351F068EC70E080E083
:1020500090E00E944107C9D9E0E0F0E01995809135
:102060006B07811134C666E972E0CE0101966DDB23
:10207000CE0101960E94BF02CE01019661DB0E9453
:10208000790760937D0770937E0780937F07909315
:102090008007CE01439654DB8091E307882309F43F
:1020A00083C00E9479076093790770937A078093C1
:1020B0007B0790937C070E94790760938F0670934B
:1020C0009006809391069093920600918B06109152
:1020D0008C0620918D0630918E06DC01CB01801B91
:1020E000910BA20BB30B883E9340A105B10508F4F8
:1020F0005BC08091790790917A07A0917B07B0919E
:102100007C0740917D0750917E0760917F07709119
:102110008007841B950BA60BB70B009175071091D8
:1021200076072091770730917807B901A8014452CA
:102130005A4F6F4F7F4F80179107A207B307B0F038
:10214000481759076A077B0788F062E080E00E9421
:10215000D4016BEF73E083E498E05ADB1092310511
:102160001092300581E08093270514C084179507ED
:10217000A607B70778F080912705882359F062E019
:1021800080E00E94D4016DE074E083E498E040DBDD
:10219000109227050E94790760938B0670938C0636
:1021A00080938D0690938E0689E395E00E949504B6
:1021B000181619060CF067C089E395E00E947304B5
:1021C00080933005982F92959695969593709230BE
:1021D00009F059C0082F087310E093E01595079592
:1021E0009A95E1F78770C82ED12C78012FEFE21A6B
:1021F000F20AF701EE0FFF1FED56F94F20813181F2
:10220000A901415051094230510528F0C6010197FA
:10221000029790F527C0811121C00E947907F8012B
:10222000EE0FFF1FEE0FFF1FED56F94F4684578448
:1022300060887188DC01CB0184199509A609B7096A
:1022400040909D0650909E0660909F067090A0065C
:1022500084159505A605B705C8F615C02C153D05CE
:10226000A9F611C0E0919B06F0919C06ED56F94F3E
:10227000868D813009F4CFC5F701EE0FFF1FED56B3
:10228000F94FD182C08282E08B8F86E28C8F60E82A
:102290008CE199D887E08B8B6E013BE1C30ED11C9A
:1022A000E12C8E010D5E1F4F9601AE014F5F5F4F17
:1022B00061E0CE014C960E942609811108C08B8DE9
:1022C000823009F047C28B89811144C203C0823039
:1022D00009F040C260E88CE176D883E98983442420
:1022E0004394512CF12C40E2F4121CC080E78A8305
:1022F0009C818B8189279D8189279E8189278F8356
:10230000AE01485F5F4F67E0CE0101960E94160460
:102310008111D7C01B8E93E09B8BFE0137963F0146
:1023200099E027C08F2D877887FF03C08150886F81
:102330008F5F8B8F2F2DF7FE02C027E02F0D259585
:102340002595259532E0320F982FF0E13F9F900DB3
:1023500011249A8391E0811101C090E0930F6624CB
:102360006394712C6C0E7D1E630E711C87E0821BC2
:102370008B8BEB8C6E2D6295607F6E0D8AE19D8F4D
:102380000E94BA0386019E012D5E3F4FA3019D8DE1
:10239000692FCE0101960E942609823089F58CE1D1
:1023A0000E949C0385FDD6C18F7109F480E2282F1D
:1023B00030E04F2DFF0C550B421753070CF0CAC1EC
:1023C000F82EC901019787709927259525952595A0
:1023D00031E0320F21E0009709F420E0230FE1E023
:1023E000F0E0EC0FFD1FE20FF11D910102C0220F82
:1023F000331F8A95E2F7C9019081892B808373CFBF
:1024000081115FC030E2F31619F050E2F52E6ECF65
:102410008B81883819F453E043E002C052E044E075
:1024200080E090E0252D30E0FC01E20FF31FEB5C33
:10243000F74F652F680FA1E0B0E0AC0FBD1FA60FEE
:10244000B11D6C9161830196841770F38B89833081
:1024500009F080C18B8D81117DC1AE014D5F5F4F51
:1024600061E0C3010E94160481112BC09B81F3011E
:10247000818198136FC19C81828198136BC1808187
:1024800082FF15C04394F2E04F1205C085E98983AD
:1024900073E0572E27CF23E0421205C087E98983D6
:1024A00066E0562E1FCF31E0431254C116CF809301
:1024B0004008842D880F782F740D7F5F7093350846
:1024C00002C0811147C10E94790700913105109126
:1024D00032052091330530913405DC01CB01801B9E
:1024E000910BA20BB30B893E9340A105B10508F4F3
:1024F00031C10E9479076093310570933205809352
:102500003305909334054091350826E338E0CE0139
:1025100043967C01DC01F9018E2F821B841728F47D
:10252000819190E08D939D93F7CF80E294E00E949B
:102530009B0262E080E00E94D40165E374E083E4E2
:1025400098E066D961E083E498E05BD969E374E0E0
:1025500083E498E05DD98091E407882309F44AC0B8
:1025600081E080936E071092E4078093E2078093E6
:10257000E3078093E1070E94790760937D077093DA
:102580007E0780937F079093800700E010E0F701BB
:10259000D080F2E0EF0EF11C0F5F1F4F6D2DC801D0
:1025A0000E946A08F801E259F84FD38A04301105F5
:1025B00071F761E085E090E00E946A0811E01093F5
:1025C000860761E086E090E00E946A081093870722
:1025D0000091D3071091D4070F5F1F4F1093D407BA
:1025E0000093D307602F80E090E00E946A08009378
:1025F0008107E8C481E080936E078091810790E0B5
:102600009093D4078093D307009709F441C067E003
:1026100070E040E050E0A1E0B0E08E010F5F1F4F9E
:1026200020E030E0F901EA0FFB1FE259F84FE3899F
:102630006E2E712CF801619271928F012F5F3F4FC6
:102640002630310579F7E981FA812B893C89E21737
:10265000F307A9F4EB81FC812D893E89E217F3078A
:1026600071F4ED81FE812F89388DE217F30739F47B
:10267000EF81F885298D3A8DE217F307C9F04F5F96
:102680005F4F4817590724F4DB016A5F7F4FC5CFBE
:102690006FEE73E08FE697E00E94BE0A8111D3C30C
:1026A00069EE73E08FE697E00E94BE0A811120C4B4
:1026B000CE0143960E94CD026CE474E086ED95E075
:1026C000A7D88091E20790E00E9468036CE574E06F
:1026D00086ED95E09DD88091E30790E00E94680325
:1026E00060E080E00E94D4016FE074E083E498E051
:1026F0008FD861E080E00E94D4016FE074E083E451
:1027000098E086D862E080E00E94D4016FE074E037
:1027100083E498E07DD863E080E00E94D4016FE01C
:1027200074E083E498E074D8E0919B06F0919C06F5
:10273000ED56F94F868D813009F477C4E0919B0600
:10274000F0919C06ED56F94F868D813009F085C4D5
:102750000E94A8020E9479076B017C0180913605D6
:10276000882309F46CC08091380290913902F601F7
:10277000E81BF90BCF01883E934008F452C0CE010C
:1027800001960E94E80164E275E0CE0101960E9484
:10279000BE0A182FCE0101960E94A00B111135C060
:1027A0008CE694E00E949B02CE0101960E94E80113
:1027B000CE0101960E94BF02CE0101960E94A00B9D
:1027C00061E080E00E94D40163E974E083E498E072
:1027D0001FD8CE0101960E94E801BE016F5F7F4FB6
:1027E00083E498E016D8CE0101960E94A00B62E027
:1027F00080E00E94D40160E08CE00E94D4016BE98B
:1028000074E083E498E004D806C080EA94E00E9473
:102810009B020E94A8021092360581E08093350544
:102820000EC08EEA94E00E949B0260E080E00E946D
:10283000D40166EC74E083E498E00E94080C809177
:102840003505882329F18091380290913902C81A00
:10285000D90A28E8C21623E1D206D0F083ED94E02D
:102860000E949B0260E080E00E94D4016FE074E06F
:1028700083E498E00E94080C61E080E00E94D401AB
:102880006FE074E083E498E00E94080C1092350534
:102890008091E307811114C060E00E94D4016BEDC8
:1028A00074E083E498E00E94080C62E083E498E01E
:1028B0000E94010C65EE74E083E498E00E94080C2D
:1028C00063E080E00E94D40169EE74E083E498E064
:1028D0000E94080CE0919B06F0919C06ED56F94F82
:1028E000868D813019F465EA72E002C06FEA72E009
:1028F00083E498E00E94080CCE0101960E94E80152
:1029000064E275E0CE0101960E94BE0A182FCE0146
:1029100001960E94A00B112309F468C08091E4077E
:10292000882339F060E080E00E94D40160EF74E019
:1029300016C068EA73E08FE697E00E94BE0A811134
:10294000F1CF6CEB73E08FE697E00E94BE0A60E087
:102950008823F9F080E00E94D4016DEF74E083E4F5
:1029600098E00E94080C60E080E00E94D4016BEDCA
:1029700074E083E498E00E94080C62E083E498E04D
:102980000E94010C65EE74E083E498E00E94080C5C
:1029900085C080E00E94D4016BED74E083E498E090
:1029A0000E94080C62E083E498E00E94010C65EE4E
:1029B00074E083E498E00E94080C63E080E00E94E9
:1029C000D40169EE74E083E498E00E94080CE09181
:1029D0009B06F0919C06ED56F94F868D813019F4D7
:1029E00065EA72E0D1CF6FEA72E0CECFE0919B064C
:1029F000F0919C06ED56F94F868D813009F04EC05E
:102A00000E941E0297FD2CC060E080E00E94D4016D
:102A10006BED74E083E498E00E94080C62E083E4CC
:102A200098E00E94010C65EE74E083E498E00E9457
:102A3000080C60E08EE00E94D4010E941E020A97FA
:102A40000CF415C30E941E02BC0183E498E00E94AE
:102A500060020E941E02892B19F481E080933805E0
:102A60000E947907609377067093780680937906C1
:102A700090937A0600917306109174062091750662
:102A800030917606DC01CB01801B910BA20BB30BBE
:102A9000843F9140A105B10508F0EEC2E0919B068C
:102AA000F0919C06ED56F94F868D813009F048C0B3
:102AB00058C360E080E00E94D4016CEC72E083E4D3
:102AC00098E00E94080C61E080E00E94D40161E17E
:102AD00075E083E498E00E94080C62E080E00E94C8
:102AE000D40168E174E083E498E00E94080C62E09D
:102AF00087E00E94D401CE0101960E94E801BE0148
:102B00006F5F7F4F83E498E00E94090CCE0101962D
:102B10000E94A00B63E080E00E94D4016CEC72E0A4
:102B200083E498E00E94080C68E873E180E090E09C
:102B30000E9441071092380583E498E00E945908EA
:102B40000E943B05BBC8CE0101960E945A0B0C9413
:102B50007C0D10926B0781E080936C0722CA8091F4
:102B6000690790916A07FC01E75AF84F10830196B4
:102B700090936A078093690714CA6AE973E0CE01EB
:102B800001960E94BE0A882319F06FE973E044CAD7
:102B90006EEA73E0CE0101960E94BE0A882319F006
:102BA00063EB73E039CA61EC73E0CE0101960E94D9
:102BB000BE0A882319F066EC73E02ECA64EC73E059
:102BC000CE0101960E94BE0A882319F06CEC73E0D6
:102BD00023CACE0101960E94A00B64E275E0CE01EB
:102BE00043960E94A50B1ECA8091E207882309F430
:102BF0004FC06DE873E0CE0143960E94BE0A882361
:102C000071F160E080E00E94D40169ED73E083E43B
:102C100098E00E94080C68EC70E080E090E00E9470
:102C2000410735EEE32E37E0F32E00E010E0F70128
:102C300011927F0160E0C8010E946A080F5F1F4F78
:102C400000351105A1F768EC70E080E090E00E948B
:102C500041070E94F509E0E0F0E0199519C06FE91D
:102C600073E0CE0143960E94BE0A882319F069EEF4
:102C700073E00AC063EB73E0CE0143960E94BE0A84
:102C8000882331F06FEE73E08FE697E00E948B0BA4
:102C90008091E307882309F4D1C96CEC73E0CE017D
:102CA00043960E94BE0A882309F4C8C984EF93E0C2
:102CB0000E949B02E0919B06F0919C06ED56F94F15
:102CC000868D813009F09DC00E94A802B7C96BE8CB
:102CD00072E0CBC9CE0101960E94E80164E275E082
:102CE000CE0101960E94BE0A082FCE0101960E94D5
:102CF000A00B011160C90E941E02181619060CF0E3
:102D00005AC9133209F058C062E080E00E94D40131
:102D10006FE074E083E498E00E94080C6BE573E0D8
:102D200081E896E00E94BE0A8823C9F160E080E055
:102D30000E94D4016FE074E083E498E00E94080CE4
:102D400061E080E00E94D4016FE074E083E498E0E9
:102D50000E94080C63E080E00E94D4016FE074E000
:102D600083E498E00E94080C63E080E00E94D401B4
:102D700060E673E083E498E00E94080C81E793E04A
:102D80000E949B020E94A8028FEF9FEFDC018093BC
:102D9000010790930207A0930307B093040764E22E
:102DA00075E081E896E00E948B0B64E275E08BE7AA
:102DB00096E00E948B0BFFC8612F81E896E00E948D
:102DC000390B6AE28BE796E00E94390B62E085E0FE
:102DD0000E94D4016BE776E083E498E00E94090C3E
:102DE0006EE174E083E498E00E94080C64E873E00C
:102DF00086ED95E00E94080C81E896E00E94BF02F3
:102E0000DAC881E0809336050E9479077093390211
:102E10006093380213C90E947907000F111F000F39
:102E2000111FF801ED56F94F66877787808B918BDC
:102E30000E9479076093010770930207809303074C
:102E40009093040719CA64E275E08FE697E00E9448
:102E50008B0B81E080936E070E94790760937D075A
:102E600070937E0780937F07909380078091D307AC
:102E70009091D407009771F02091D1073091D2073B
:102E8000829F8001839F100D929F100D11240F5F70
:102E90001F4F02C001E010E03801F7015080F2E05E
:102EA000EF0EF11C652DC3010E946A08F301E2597F
:102EB000F84F538A2FEF621A720AEC14FD0469F777
:102EC000780134E0E30EF11C60E0C7010E946A085B
:102ED000F701E259F84F138A0B5F1F4F61E0C801F9
:102EE0000E946A08F801E259F84F81E0838B55C0CF
:102EF00064E275E08FE697E00E948B0B81E080939F
:102F00006E070E94790760937D0770937E07809318
:102F10007F07909380078091D3079091D407009703
:102F200071F02091D1073091D207829F8001839F59
:102F3000100D929F100D11240F5F1F4F02C001E072
:102F400010E03801F7015080F2E0EF0EF11C652D22
:102F5000C3010E946A08F301E259F84F538A2FEF28
:102F6000621A720AEC14FD0469F7780134E0E30E8A
:102F7000F11C61E0C7010E946A08F701E259F84FAD
:102F8000FF24F394F38A0B5F1F4F61E0C8010E9496
:102F90006A08F801E259F84FF38A0091D3071091BB
:102FA000D4070F5F1F4F1093D4070093D307602FF0
:102FB00080E090E00E946A0800938107CE0143966A
:102FC0000E94CD0260E080E00E94D4016FE074E0D6
:102FD00083E498E00E94080C61E080E00E94D40144
:102FE0006FE074E083E498E00E94080C62E080E007
:102FF0000E94D4016FE074E083E498E00E94080C22
:1030000063E080E00E94D4016FE074E083E498E024
:103010000E94080C61E080E00E94D40160E474E04A
:1030200083E498E00E94080C95CBCE0101960E94A3
:10303000E80164E275E0CE0101960E94BE0A182FF5
:10304000CE0101960E94A00B111178CB62E080E0C6
:103050000E94D40166E674E0E3CF81E080933605F8
:103060000E947907709339026093380273CB0E94F3
:103070001E0297FF6FC0E6CC8091E307882351F0D2
:1030800062E080E00E94D40166E674E083E498E0A8
:103090000E94080C8091370561E0882351F084E09C
:1030A0000E94D40167E174E083E498E00E949C08E8
:1030B00040C084E00E94D4016AE075E083E498E0B7
:1030C0000E949C088091950690919606019749F080
:1030D0008091970690919806019731F082E090E0F8
:1030E00005C080E090E002C081E090E01C8A1B8A6D
:1030F0001E8A1D8A188E1F8A4AE0BE016F5F7F4FAD
:1031000080D2BE016F5F7F4FCE0143960E948B0B32
:10311000BE016D5E7F4F83E498E00E94090CCE01F2
:1031200043960E94A00B6BE174E083E498E00E9458
:10313000080C9091370581E08927809337050E941C
:103140007907609373067093740680937506909365
:103150007606A4CC6EE174E083E498E00E94080C4B
:1031600071CCCE0101960E94E80164E275E0CE01C7
:1031700001960E94BE0A182FCE0101960E94A00B54
:10318000112309F4DDCC61E080E00E94D40161E10B
:1031900074E083E498E00E94080CD2CCCF92DF92D6
:1031A000EF92FF92CF93DF93CDB7DEB7C05FD10927
:1031B0000FB6F894DEBF0FBECDBF10923C05109243
:1031C0003B0548EE53E060E070E040933D055093CE
:1031D0003E0560933F057093400587E692E090932B
:1031E0003A05809339052DEC30E030934605209365
:1031F00045052CEC30E0309348052093470528EC3A
:1032000030E030934A052093490529EC30E03093B3
:103210004C0520934B052AEC30E030934E0520936B
:103220004D052EEC30E03093500520934F05109261
:1032300052051092530510925405109255051092A4
:10324000D9051092D8054093DA055093DB056093B9
:10325000DC057093DD059093D7058093D60585EC4A
:1032600090E09093E3058093E20584EC90E09093E6
:10327000E5058093E40580EC90E09093E70580936A
:10328000E60581EC90E09093E9058093E80582ECF7
:1032900090E09093EB058093EA0586EC90E09093A4
:1032A000ED058093EC051092EF051092F005109259
:1032B000F1051092F20510925D08109261081092CB
:1032C00060081092620885E892E090935C08809311
:1032D0005B0880E090E0FC01E55AF74F148E10A2E5
:1032E000178E11A206968C339105A9F78DE392E013
:1032F0009093BE088093BD088AE392E09093C00843
:103300008093BF0884E08093C10883E08093C20863
:1033100081E492E09093BC088093BB088AE090E03F
:103320009093C4088093C30884EF91E09093C608FB
:103330008093C5081092C9081092C8081092B70867
:103340001092B8081092B9081092BA081092C708E3
:10335000109246081092450889E792E0909344083D
:103360008093430880E3809347088FEF8093480859
:1033700081E3809349088EE280934A088FE280932C
:103380004B088CE280934C088DE280934D0810929C
:103390004E0810924F081092500810925108109247
:1033A000520861E083E498E00E94480188E080933D
:1033B000410889E08093420885EE97E00E948608E4
:1033C00080E5E5EEF7E0DE01AF55BF4F01900D92CD
:1033D0008A95E1F710926E0764E275E08FE697E058
:1033E0000E94A50B88E99AE3A0E0B0E080937507FE
:1033F00090937607A0937707B093780781E897E0DA
:103400000E94860886E090E09093D2078093D107CF
:103410001092E1071092E2071092E3071092E4077E
:1034200080E5FE01EF55FF4FA1E8B7E001900D9256
:103430008A95E1F78091810790E09093D40780937B
:10344000D307892B69F0E1E8F7E080E090E0219173
:10345000820F911D27E0E13DF207C9F7892B19F48E
:1034600081E08093E40780E5E5EEF7E0DE01AF5A06
:10347000BF4F01900D928A95E1F789E097E00E9495
:10348000860810926A071092690710926B071092D3
:103490006C078AE280936D0780E5FE01EF5AFF4FCB
:1034A000A9E0B7E001900D928A95E1F780E5E5EE9D
:1034B000F7E0DE01119601900D928A95E1F783E025
:1034C00090E0909394068093930686E0E5E9F6E019
:1034D000DF011D928A95E9F786E490E090939C06BF
:1034E00080939B0688EAC82E81E6D82EE12CF12C29
:1034F000C0929D06D0929E06E0929F06F092A00692
:1035000080E1E3E5F2E0A1EAB6E001900D928A9550
:10351000E1F781EB96E00E9486088FEF9FEFDC01D8
:103520008093010790930207A0930307B0930407C9
:10353000C0920507D0920607E0920707F0920807AD
:1035400080E5FE013196A1EBB6E001900D928A95DF
:10355000E1F70E94790760938F067093900680933D
:103560009106909392060E94790760938B06709360
:103570008C0680938D0690938E060E947907609347
:103580008706709388068093890690938A0664E282
:1035900075E081E896E00E94A50B64E275E08BE798
:1035A00096E00E94A50B0E947907609377067093BE
:1035B00078068093790690937A060E947907609343
:1035C0007306709374068093750690937606C051C7
:1035D000DF4F0FB6F894DEBF0FBECDBFDF91CF91A6
:1035E000FF90EF90DF90CF9008958BE796E00E94D8
:1035F000A00B81E896E00E94A00B8FE697E00C9468
:10360000A00BBB274A3031F4992322F4BDE29095F8
:1036100081959F4F01C0BB27FB015527AA27880F23
:10362000991FAA1FA41710F0A41B83955051B9F736
:10363000A05DAA3308F0A95DA193009779F7B111B5
:10364000B1931192CB0100C0DC01FC01672F719195
:103650007723E1F7329704C07C916D937083629178
:10366000AE17BF07C8F30895F999FECF92BD81BD8B
:10367000F89A992780B50895262FF999FECF1FBA99
:1036800092BD81BD20BD0FB6F894FA9AF99A0FBE8B
:103690000196089597FB072E16F4009406D077FD47
:1036A00008D035D007FC05D03EF4909581959F4F0A
:1036B0000895709561957F4F0895A1E21A2EAA1B77
:1036C000BB1BFD010DC0AA1FBB1FEE1FFF1FA217D2
:1036D000B307E407F50720F0A21BB30BE40BF50BCF
:1036E000661F771F881F991F1A9469F76095709558
:1036F000809590959B01AC01BD01CF010895EE0F1F
:10370000FF1F881F8BBF0790F691E02D1994AA1B0D
:10371000BB1B51E107C0AA1FBB1FA617B70710F0BC
:10372000A61BB70B881F991F5A95A9F780959095EE
:10373000BC01CD010895CF93DF938230910510F441
:1037400082E090E0E091D708F091D80820E030E0E6
:10375000C0E0D0E0309711F14081518148175907FE
:10376000C0F04817590761F482819381209719F0BE
:103770009B838A832BC09093D8088093D70826C058
:103780002115310519F04217530718F49A01BE01AB
:10379000DF01EF010280F381E02DDCCF211531053F
:1037A00009F1281B390B2430310590F412968D91C4
:1037B0009C9113976115710521F0FB01938382831E
:1037C00004C09093D8088093D708FD01329644C076
:1037D000FD01E20FF31F81939193225031092D9344
:1037E0003C933AC02091D5083091D608232B41F460
:1037F00020914F02309150023093D6082093D50883
:1038000020914D0230914E022115310541F42DB722
:103810003EB74091510250915202241B350BE0916A
:10382000D508F091D608E217F307A0F42E1B3F0B42
:103830002817390778F0AC014E5F5F4F2417350722
:1038400048F04E0F5F1F5093D6084093D5088193E0
:10385000919302C0E0E0F0E0CF01DF91CF910895B5
:103860000F931F93CF93DF93009709F48CC0FC0153
:103870003297138212820091D7081091D80801154F
:10388000110581F420813181820F931F2091D50889
:103890003091D6082817390779F5F093D608E093C8
:1038A000D50871C0D80140E050E0AE17BF0750F412
:1038B00012962D913C911397AD012115310509F117
:1038C000D901F3CF9D01DA013383228360817181B5
:1038D000860F971F8217930769F4EC0128813981BD
:1038E000260F371F2E5F3F4F318320838A819B81B4
:1038F00093838283452B29F4F093D808E093D7086B
:1039000042C01396FC93EE931297ED0149915991A1
:103910009E01240F351FE217F30771F48081918116
:10392000840F951F029611969C938E9382819381AA
:1039300013969C938E931297E0E0F0E0D8011296D4
:103940008D919C911397009719F0F8018C01F6CF97
:103950008D919C9198012E5F3F4F820F931F209174
:10396000D5083091D6082817390769F4309729F41B
:103970001092D8081092D70802C0138212821093B6
:10398000D6080093D508DF91CF911F910F9108952C
:103990006F927F928F929F92AF92BF92CF92DF925F
:1039A000EF92FF920F931F93CF93DF93EC01009759
:1039B00081F4CB01DF91CF911F910F91FF90EF9098
:1039C000DF90CF90BF90AF909F908F907F906F903F
:1039D000B2CEFC01E60FF71F9C0122503109E2171D
:1039E000F30708F4A8C0D9010D911C91119706178F
:1039F0001707A8F00530110508F49BC0C80104970B
:103A00008617970708F495C002501109061B170B7B
:103A1000019311936D937C93CF0122DF8AC05B01E8
:103A2000A01AB10A4C01800E911EA091D708B09146
:103A3000D80840E050E0E12CF12C109709F44AC07E
:103A4000A815B905D1F56D907C901197630182E0BE
:103A5000C80ED11CCA14DB0480F1A3014A195B090A
:103A60006A0182E0C80ED11C1296BC901297139680
:103A7000AC91B5E0CB16D10440F0B282A383518360
:103A80004083D9016D937C930AC00E5F1F4FC30121
:103A9000800F911FF90191838083EB2DFA2FE114A0
:103AA000F10431F0D7011396FC93EE93129741C0C5
:103AB000F093D808E093D7083CC08D919C91119762
:103AC0004817590708F4AC017D0112960D90BC917E
:103AD000A02DB3CF8091D5089091D608881599056F
:103AE000E1F446175707C8F480914D0290914E02B9
:103AF000009741F48DB79EB7409151025091520208
:103B0000841B950BE817F907B0F4F093D608E093FF
:103B1000D508F901718360830CC0CB010CDE7C01F8
:103B2000009749F0A801BE011BD0CE0199DEC70164
:103B300004C0CE0102C080E090E0DF91CF911F91E0
:103B40000F91FF90EF90DF90CF90BF90AF909F903C
:103B50008F907F906F90089581E090E0F89419C065
:103B6000FB01DC0102C001900D9241505040D8F79A
:103B70000895FB01DC018D91019080190110D9F3AA
:103B8000990B0895FB01DC0101900D920020E1F7F3
:103B9000089511E0C5E1D1E000E005C0802FFE01ED
:103BA000AEDD2196011DC631D10780E00807B1F7CF
:043BB000F894FFCFB7
:103BB40004000E111F111100010E1315190E10002F
:103BC4000F14141E1414170004000E010F110F001B
:103BD40000010E15150E100000001A050F141F0029
:103BE4001008040201020400FFFF1C1F1E181B1A08
:103BF4001D3132333435363738392A30230000D971
:103C0400088000FFFFFFFFFFFFFFFFFFFFFFFFFF35
:103C1400FFFFFF00000000D404D40864041A0595D3
:103C24000473048704000000005208D408EA05E97C
:103C340005000000003E07EC06BB06496E20636FDA
:103C44006D6D616E64004E6F7420696E20636F6DDC
:103C54006D616E640074696C6B6F626C6574006690
:103C640072616B6F626C6574003D3D3D3D3D3D3D51
:103C74003D3D3D3D3D3D3D3D3D3D3D3D3D3D3D3D70
:103C84003D3D3D3D3D3D3D3D3D3D3D3D0044554D6E
:103C9400503A202800206279746573290056616CBB
:103CA40069646174696E67206D656D6F72792E2E1B
:103CB4002E2000094D656D6F727920656D707479E1
:103CC4002E205265676973746572206E6577204192
:103CD400646D696E207461672E2E2E00094D656D2A
:103CE4006F727920636F6E7461696E7320636F6E97
:103CF40066696775726174696F6E210055736572C8
:103D0400733A200052656164792100313233340002
:103D1400416C61726D206672616B6F626C657421B7
:103D24000050415353574F52445F414349544956FD
:103D34004154450020203E003030303000434C4593
:103D440041525F454550524F4D0030393939005288
:103D5400454749535445525F41444D494E00303024
:103D640039390052454749535445525F55534552DA
:103D7400003030303100524553455400544F4747CA
:103D84004C455F414C41524D00436C656172696E14
:103D94006720454550524F4D0041646D696E005592
:103DA40073657200544F47474C45004C6F67676515
:103DB4007420756420202020202020200020202032
:103DC400202020202020202020202020202020000F
:103DD40052656164696E67205246494420436869AC
:103DE400702E2E2E0041666C007365722E2E2E00EE
:103DF40052656769737472657265740041646D69B4
:103E04006E6973747261746F723A2000416C6C6FE6
:103E14007765643A20004B6F64653A0043616E6EC7
:103E24006F7420616374697661746520616C61727A
:103E34006D2E20416C61726D2077656E74206F6603
:103E4400662100414C41524D3A200046656A6C009F
:103E540041637469766174696E672E2E2E00507208
:103E640065706172696E67206163746976617469F3
:103E74006F6E2E2E2E00416B746976657265722EFC
:103E84002E2E00436C6561726564004672656D7622
:103E94006973206E00676C6500416C61726D20006F
:103EA4004F707265742061646D696E2E004F70727C
:103EB40065742062727567657200414C41524D20F1
:103EC400002020202020414C41524D202020202041
:063ED40020000D0A0000B1
:020000023000CC
:10E000000D9489F10D94B2F10D94B2F10D94B2F129
:10E010000D94B2F10D94B2F10D94B2F10D94B2F1F0
:10E020000D94B2F10D94B2F10D94B2F10D94B2F1E0
:10E030000D94B2F10D94B2F10D94B2F10D94B2F1D0
:10E040000D94B2F10D94B2F10D94B2F10D94B2F1C0
:10E050000D94B2F10D94B2F10D94B2F10D94B2F1B0
:10E060000D94B2F10D94B2F10D94B2F10D94B2F1A0
:10E070000D94B2F10D94B2F10D94B2F10D94B2F190
:10E080000D94B2F10D94B2F10D94B2F10D94B2F180
:10E090000D94B2F10D94B2F10D94B2F10D94B2F170
:10E0A0000D94B2F10D94B2F10D94B2F10D94B2F160
:10E0B0000D94B2F10D94B2F10D94B2F10D94B2F150
:10E0C0000D94B2F10D94B2F10D94B2F10D94B2F140
:10E0D0000D94B2F10D94B2F10D94B2F10D94B2F130
:10E0E0000D94B2F141546D656761323536300041AF
:10E0F000726475696E6F206578706C6F72657220DE
:10E1000073746B3530305632206279204D4C530099
:10E11000426F6F746C6F616465723E004875683F52
:10E1200000436F6D70696C6564206F6E203D200048
:10E130004350552054797065202020203D20005FF9
:10E140005F4156525F415243485F5F3D2000415658
:10E1500052204C696243205665723D20004743437C
:10E160002056657273696F6E203D20004350552024
:10E1700049442020202020203D20004C6F7720663D
:10E18000757365202020203D20004869676820665F
:10E190007573652020203D200045787420667573D6
:10E1A00065202020203D20004C6F636B2066757336
:10E1B000652020203D20004D617220203720323024
:10E1C000313300312E362E3800342E332E350056A2
:10E1D00023202020414444522020206F7020636F70
:10E1E00064652020202020696E73747275637469E1
:10E1F0006F6E2061646472202020496E74657272B3
:10E20000757074006E6F20766563746F7200726A49
:10E210006D702020006A6D70200057686174207056
:10E220006F72743A00506F7274206E6F7420737541
:10E2300070706F72746564004D7573742062652030
:10E2400061206C6574746572002000577269747483
:10E25000696E672045450052656164696E672045B7
:10E26000450045452065727220636E743D00504F35
:10E27000525400303D5A65726F2061646472003FF1
:10E280003D43505520737461747300403D454550C3
:10E29000524F4D207465737400423D426C696E6B41
:10E2A000204C454400453D44756D70204545505215
:10E2B0004F4D00463D44756D7020464C415348001B
:10E2C000483D48656C70004C3D4C69737420492F83
:10E2D0004F20506F72747300513D51756974005234
:10E2E0003D44756D702052414D00563D73686F7707
:10E2F00020696E7465727275707420566563746FF0
:10E30000727300593D506F727420626C696E6B00BD
:10E310002A0011241FBECFEFD1E2DEBFCDBF01E046
:10E320000CBF12E0A0E0B2E0EEE1FDEF03E00BBFB6
:10E3300002C007900D92A030B107D9F712E0A0E01B
:10E34000B2E001C01D92AE30B107E1F70F9460F367
:10E350000D948DFE01E20EBF0FEF0DBF11241FBE05
:10E360000D9460F30D9400F020E030E040ED57E0B4
:10E3700005C0FA013197F1F72F5F3F4F2817390792
:10E38000C0F308959C01260F311DC901A0E0B0E043
:10E390002F5F3F4FABBFFC018791882361F08093D3
:10E3A000C6008091C00086FFFCCF8091C0008064D1
:10E3B0008093C000EACF08958DE08093C6008091DD
:10E3C000C00086FFFCCF8091C00080648093C000B5
:10E3D0008AE08093C6008091C00086FFFCCF8091C8
:10E3E000C00080648093C00008950F94C2F10F9420
:10E3F000DCF10895FC019081992359F09093C600B7
:10E400008091C00086FFFCCF8091C0008064809323
:10E41000C0003196992379F70895282F982F929567
:10E420009F70892F805D8A3308F0895F8093C600D2
:10E430008091C00086FFFCCF8091C00080648093F3
:10E44000C000822F8F70982F905D9A3308F0995FEB
:10E450009093C6008091C00086FFFCCF8091C000E1
:10E4600080648093C00008959C01FB01853691056E
:10E470001CF46330710594F0C90164E670E00F94F8
:10E480002EFE605D7F4F6093C6008091C00086FFC6
:10E49000FCCF8091C00080648093C0002B30310598
:10E4A00014F43297B4F0C90164E670E00F942EFEC4
:10E4B0006AE070E00F942EFE605D7F4F6093C600AF
:10E4C0008091C00086FFFCCF8091C0008064809363
:10E4D000C000C9016AE070E00F942EFEC0968093E0
:10E4E000C6008091C00086FFFCCF8091C000806490
:10E4F0008093C00008951F93182F8EE692EE60E07F
:10E500000F94C2F11093C6008091C00086FFFCCF2B
:10E510008091C00080648093C0000F94DCF11F9153
:10E5200008952F923F924F925F926F927F928F92B7
:10E530009F92AF92BF92CF92DF92EF92FF920F9392
:10E540001F93DF93CF93CDB7DEB762970FB6F894E2
:10E55000DEBF0FBECDBF382E622ECA01DB015C01CB
:10E560006D01772420E2222E2E010894411C511CBB
:10E570008BC081E0A81680E0B80681E0C80680E084
:10E58000D80628F0C601AA27BB270F940DF2BB2797
:10E59000AD2D9C2D8B2D0F940DF28A2D0F940DF225
:10E5A0002092C6008091C00086FFFCCF8091C00001
:10E5B00080648093C0009DE29093C6008091C0006B
:10E5C00086FFFCCF8091C00080648093C0002092C1
:10E5D000C6008091C00086FFFCCF8091C00080649F
:10E5E0008093C00019828601750188249924A1E0D6
:10E5F0003A1651F03A1620F0B2E03B1661F409C029
:10E600000BBFF701779007C0C7010F9477FE782EF4
:10E6100002C0F7017080872D0F940DF22092C60082
:10E620008091C00086FFFCCF8091C0008064809301
:10E63000C000872D8052F401EF70F0708F3520F408
:10E64000E40DF51D708204C0E40DF51D8EE280839B
:10E650000894E11CF11C011D111D0894811C911CE2
:10E6600090E18916910409F0C2CF80E190E0A0E02A
:10E67000B0E0A80EB91ECA1EDB1E198AC2010F9493
:10E68000FAF10F94DCF16A94662009F072CF629679
:10E690000FB6F894DEBF0FBECDBFCF91DF911F91B3
:10E6A0000F91FF90EF90DF90CF90BF90AF909F9031
:10E6B0008F907F906F905F904F903F902F90089534
:10E6C0002F923F924F925F926F927F928F929F9282
:10E6D000AF92BF92CF92DF92EF92FF920F931F9370
:10E6E000DF93CF93CDB7DEB7CD53D1400FB6F894BB
:10E6F000DEBF0FBECDBF01E20EBF0FEF0DBF94B75F
:10E70000F894A89514BE80916000886180936000A1
:10E7100010926000789493FF05C0E0910002F091A0
:10E7200001021995279A2F9A8091C00082608093E8
:10E73000C00080E18093C40088E18093C1000000A4
:10E74000EE24FF24870144E0A42EB12CCC24DD2448
:10E7500024C0C5010197F1F70894E11CF11C011DCB
:10E76000111D21E2E2162EE4F20620E0020720E06D
:10E77000120718F031E0C32ED12CC801B70127ECE5
:10E780003BE140E050E00F9441FE611571058105C9
:10E79000910519F485B1805885B98091C00087FD35
:10E7A00003C0C114D104A9F2A6014F5F5F4FC25E3E
:10E7B000DE4F59834883CE51D140C25EDE4F8881FF
:10E7C0009981CE51D140019711F00D9410FEC05D9A
:10E7D000DE4F19821882C053D14060E0C15DDE4F28
:10E7E0001882CF52D14088249924C35DDE4F19820C
:10E7F0001882CD52D140C05EDE4F188219821A8233
:10E800001B82C052D140CE5CDE4F188219821A8220
:10E810001B82C253D140EE24FF2487010BBFF701B6
:10E8200007911691C45CDE4F19830883CC53D14005
:10E830000D940BFEC25EDE4F28813981CE51D1404E
:10E840002130310509F52091C600C25EDE4F1982E4
:10E850001882CE51D14022C02F5F3F4F4F4F5F4FA4
:10E86000213082E138078AE7480780E0580780F0C6
:10E87000C45CDE4FE881F981CC53D140EF5FFF4F9C
:10E8800019F0EE27FF27099420E030E040E050E047
:10E890008091C00087FFE0CF2091C600C35DDE4FAE
:10E8A00048815981CD52D1404F5F5F4FC35DDE4FEC
:10E8B00059834883CD52D140213209F063C64A3092
:10E8C000510508F05FC60894811C911C53E0851621
:10E8D000910409F059C600E010E018C081E280936D
:10E8E000C6008091C00086FFFCCF8091C00080648C
:10E8F0008093C0002F5F3F4F2931310579F70F9486
:10E90000DCF10F5F1F4F0530110519F020E030E0FA
:10E91000E5CF10920A0210920B0210920C02109294
:10E920000D02109206021092070210920802109235
:10E930000902109202021092030210920402109235
:10E9400005028FEE90EE60E00F94F5F180E191EE1C
:10E9500060E00F94C2F18091C00087FFFCCF9091DE
:10E96000C600903608F09F759032B8F09093C600BC
:10E970008091C00086FFFCCF8091C00080648093AE
:10E98000C000A0E2A093C6008091C00086FFFCCF2B
:10E990008091C00080648093C000983409F4D7C18E
:10E9A0009934B8F4923409F459C1933458F490333B
:10E9B00019F1903308F4E3C59F33A1F1903409F0C5
:10E9C000DEC5BDC0953409F470C1963409F0D7C5D1
:10E9D00098C1923509F42BC2933538F49C3409F46C
:10E9E000F5C1913509F0CBC518C2963509F445C279
:10E9F000993509F0C4C567C483E792EE62E00F94CD
:10EA0000F5F110920602109207021092080210927D
:10EA1000090210920A0210920B0210920C0210923C
:10EA20000D0213C18FE792EE62E00F94F5F18FEEC5
:10EA300090EE60E00F94F5F181E291EE60E00F94CA
:10EA4000C2F187EB91EE60E00F94F5F180E391EE77
:10EA500060E00F94C2F184EE90EE60E00F94F5F167
:10EA60008FE391EE60E00F94C2F186E090E061E008
:10EA700070E00F9434F20F94DCF18DE591EE60E0DC
:10EA80000F94C2F189EC91EE60E00F94F5F18EE401
:10EA900091EE60E00F94C2F183EC91EE60E00F9490
:10EAA000F5F18CE691EE60E00F94C2F18EE10F94E7
:10EAB0000DF288E90F940DF281E00F940DF20F949E
:10EAC000DCF18BE791EE60E00F94C2F119E0E0E039
:10EAD000F0E010935700E4918E2F0F940DF20F94F5
:10EAE000DCF18AE891EE60E00F94C2F1E3E0F0E03F
:10EAF00010935700E4918E2F0F940DF20F94DCF1D8
:10EB000089E991EE60E00F94C2F1E2E0F0E0109349
:10EB10005700E4918E2F0F940DF20F94DCF188EAE8
:10EB200091EE60E00F94C2F1E1E0F0E01093570045
:10EB30001491812F0F940DF20F94DCF107CF8BE825
:10EB400092EE62E00F94F5F18BE492EE60E00F94A8
:10EB5000F5F10F94DCF100E010E019C0C8016F2D51
:10EB60000F947FFEFF2031F489E492EE60E00F9471
:10EB7000C2F10BC0F092C6008091C00086FFFCCFAE
:10EB80008091C00080648093C0000F5F1F4FC80158
:10EB900081519F41A0E0B0E0ABBFFC01F790BAE229
:10EBA000FB1621F0E2E000301E07C1F60F94DCF105
:10EBB0000F94DCF187E592EE60E00F94F5F10F948D
:10EBC000DCF1CC24DD2400E010E01EC0C8010F946D
:10EBD00077FEF82E882331F489E492EE60E00F94FA
:10EBE000C2F10BC08093C6008091C00086FFFCCFAD
:10EBF0008091C00080648093C000FE1419F00894D6
:10EC0000C11CD11C0F5F1F4FC80181519F41A0E063
:10EC1000B0E0ABBFFC01E790FAE2EF1621F022E092
:10EC20000030120799F60F94DCF10F94DCF182E6C4
:10EC300092EE60E00F94C2F1C60161E070E00F94C3
:10EC400034F20F94DCF10F94DCF110920202109276
:10EC50000302109204021092050278CE89E992EE26
:10EC600062E00F94F5F1279A2F9A16C02F9880E052
:10EC700090E0E0EDF7E03197F1F7019684369105E9
:10EC8000C1F72F9A80E090E0E0EDF7E03197F1F7DF
:10EC9000019684369105C1F78091C00087FFE6CFC9
:10ECA0008091C00087FFFCCF64C485EA92EE62E0E9
:10ECB0000F94F5F140910202509103026091040219
:10ECC0007091050281E020E10F9491F2809102029F
:10ECD00090910302A0910402B091050280509F4FD1
:10ECE000AF4FBF4F8093020290930302A0930402A0
:10ECF000B093050280509041A040B04008F426CE69
:10ED0000A4CF83EB92EE62E00F94F5F140910602FE
:10ED100050910702609108027091090280E020E1A1
:10ED20000F9491F28091060290910702A09108023F
:10ED3000B091090280509F4FAF4FBF4F80930602A2
:10ED400090930702A0930802B0930902FFCD80ECD4
:10ED500092EE62E00F94F5F183E792EE60E00F949B
:10ED6000F5F18FE792EE60E00F94F5F18BE892EE0B
:10ED700060E00F94F5F189E992EE60E00F94F5F10F
:10ED800085EA92EE60E00F94F5F183EB92EE60E09D
:10ED90000F94F5F180EC92EE60E00F94F5F187ECC2
:10EDA00092EE60E00F94F5F188ED92EE60E00F9442
:10EDB000F5F18FED92EE60E00F94F5F18AEE92EEB0
:10EDC00060E00F94F5F183E093EEBDCD87EC92EE19
:10EDD00062E00F94F5F181E40F947BF282E40F94EA
:10EDE0007BF283E40F947BF284E40F947BF285E45E
:10EDF0000F947BF286E40F947BF287E40F947BF20E
:10EE000088E40F947BF28AE40F947BF28BE40F94F6
:10EE10007BF28CE40F947BF299CD88ED92EE62E068
:10EE20000F94F5F1772473948824992409C48FED05
:10EE300092EE62E00F94F5F140910A0250910B02BC
:10EE400060910C0270910D0282E020E10F9491F22A
:10EE500080910A0290910B02A0910C02B0910D02D8
:10EE600080509F4FAF4FBF4F80930A0290930B0289
:10EE7000A0930C02B0930D0269CD8AEE92EE62E08F
:10EE80000F94F5F184EE90EE60E00F94F5F18FECC5
:10EE900091EE60E00F94F5F1662477244301CC5D98
:10EEA000DE4F19821882C452D140D401C301B695F5
:10EEB000A79597958795CA5DDE4F88839983AA8326
:10EEC000BB83C652D140CC5DDE4FA881B981C4520C
:10EED000D1401196CC5DDE4FB983A883C452D14096
:10EEE000CD0162E070E00F9434F2B0E2B093C6005E
:10EEF0008091C00086FFFCCF8091C0008064809329
:10EF0000C000EDE2E093C6008091C00086FFFCCF18
:10EF10008091C00080648093C000F0E2F093C6004E
:10EF20008091C00086FFFCCF8091C00080648093F8
:10EF3000C000CA5DDE4FE880F9800A811B81C6529D
:10EF4000D140BB27A12F902F8F2D0F940DF2CA5DBA
:10EF5000DE4F8881C652D1400F940DF2B0E2FB2EF5
:10EF6000F092C6008091C00086FFFCCF8091C00067
:10EF700080648093C0000DE30093C6008091C000C0
:10EF800086FFFCCF8091C00080648093C00010E2B7
:10EF90001093C6008091C00086FFFCCF8091C00016
:10EFA00080648093C0008BBEF3012791C65DDE4F65
:10EFB0002883CA52D140A22EBB24CC24DD2408943D
:10EFC000611C711C811C911C8BBEF3018791282E42
:10EFD0003324442455240894611C711C811C911C09
:10EFE0008BBEF3013791C55DDE4F3883CB52D140E4
:10EFF0000894611C711C811C911C8BBEF30147910C
:10F00000C45DDE4F4883CC52D140ADEFEA2EAFEF66
:10F01000FA2EAFEF0A2FAFEF1A2F6E0C7F1C801E57
:10F02000911E142D032DF22CEE24EA0CFB1C0C1D5A
:10F030001D1D0F940DF220E22093C6008091C000A8
:10F0400086FFFCCF8091C00080648093C000C65DC5
:10F05000DE4F8881CA52D1400F940DF230E23093D6
:10F06000C6008091C00086FFFCCF8091C000806404
:10F070008093C000C45DDE4F8881CC52D1400F9494
:10F080000DF240E24093C6008091C00086FFFCCFA5
:10F090008091C00080648093C000C55DDE4F888190
:10F0A000CB52D1400F940DF250E25093C6008091A4
:10F0B000C00086FFFCCF8091C00080648093C000B8
:10F0C0008FEFE8168FEFF80680E0080780E018075A
:10F0D00031F484E092EE60E00F94C2F1DFC0D80119
:10F0E000C7018070907CA070B0708050904CA040A0
:10F0F000B040D1F52FEF3FE340E050E0E222F322B1
:10F1000004231523CA5DDE4FA880B980CA80DB8046
:10F11000C652D140AE0CBF1CC01ED11EAA0CBB1CD7
:10F12000CC1CDD1C8EE092EE60E00F94C2F1BB2798
:10F13000A12F902F8F2D0F940DF28E2D0F940DF285
:10F1400030E23093C6008091C00086FFFCCF8091F2
:10F15000C00080648093C0004EE34093C60080915D
:10F16000C00086FFFCCF87C08EE09EEFA0E0B0E03D
:10F17000E822F9220A231B239CE0E91694E9F90608
:10F1800090E0090790E0190709F088C0C45DDE4FE0
:10F19000A881CC52D140EA2EFF2400E010E0102FCD
:10F1A0000F2DFE2CEE24C55DDE4FB881CB52D14031
:10F1B000EB0EF11C011D111DD601C501817090706F
:10F1C000A070B070DC0199278827E80EF91E0A1F8D
:10F1D0001B1F20EF30E040E050E0A222B322C42207
:10F1E000D52241E1AA0CBB1CCC1CDD1C4A95D1F7F1
:10F1F000EA0CFB1C0C1D1D1D81E090E0A0E0B0E0BE
:10F20000282239224A225B2235E1220C331C441C7D
:10F21000551C3A95D1F7E20CF31C041D151D57013E
:10F220006801AA0CBB1CCC1CDD1C85E192EE60E0E1
:10F230000F94C2F1C801AA27BB270F940DF2BB2778
:10F24000A12F902F8F2D0F940DF28E2D0F940DF274
:10F2500090E29093C6008091C00086FFFCCF809121
:10F26000C00080648093C000AEE3A093C60080918C
:10F27000C00086FFFCCF8091C00080648093C000F6
:10F28000C601AA27BB270F940DF2BB27AD2D9C2DDD
:10F290008B2D0F940DF28A2D0F940DF20F94DCF14B
:10F2A000CC5DDE4FE881F981C452D140F99709F471
:10F2B0004DCBF4E0EF2EF12C012D112D6E0C7F1CA7
:10F2C000801E911EF2CD83E093EE62E00F94F5F183
:10F2D0008AE192EE60E00F94C2F18091C00087FF56
:10F2E000FCCF1091C6001F751093C6008091C0001E
:10F2F00086FFFCCF8091C00080648093C0000F9493
:10F30000DCF1812F81548A3108F036C1163409F4BA
:10F3100095C0173490F4133409F44EC0143430F40B
:10F320001134F1F0123409F01DC130C0143409F465
:10F3300059C0153409F016C16BC01A3409F4C4C0A1
:10F340001B3438F4173409F48FC0183409F00AC19B
:10F35000A1C01B3409F4D2C01C3409F003C1E8C0B9
:10F360008FEF81B90DC082B1809582B980E090E0C5
:10F37000E0EDF7E03197F1F70196883C9105C1F790
:10F380008091C00087FFEFCF12B8EFC08FEF84B934
:10F390000DC085B1809585B980E090E0E0EDF7E0A3
:10F3A0003197F1F70196883C9105C1F78091C00033
:10F3B00087FFEFCF15B8D9C08FEF87B90DC088B1DF
:10F3C000809588B980E090E0E0EDF7E03197F1F7C3
:10F3D0000196883C9105C1F78091C00087FFEFCF6F
:10F3E00018B8C3C08FEF8AB90DC08BB180958BB9A7
:10F3F00080E090E0E0EDF7E03197F1F70196883C8E
:10F400009105C1F78091C00087FFEFCF1BB8ADC059
:10F410008FEF8DB90DC08EB180958EB980E090E0F0
:10F42000E0EDF7E03197F1F70196883C9105C1F7DF
:10F430008091C00087FFEFCF1EB897C08FEF80BBD1
:10F440000DC081B3809581BB80E090E0E0EDF7E0F6
:10F450003197F1F70196883C9105C1F78091C00082
:10F4600087FFEFCF11BA81C08FEF83BB0DC084B38C
:10F47000809584BB80E090E0E0EDF7E03197F1F714
:10F480000196883C9105C1F78091C00087FFEFCFBE
:10F4900014BA6BC08FEF809301010FC080910201FD
:10F4A00080958093020180E090E0E0EDF7E03197F5
:10F4B000F1F70196883C9105C1F78091C00087FF64
:10F4C000EDCF1092020151C08FEF809304010FC065
:10F4D0008091050180958093050180E090E0E0ED4A
:10F4E000F7E03197F1F70196883C9105C1F78091DB
:10F4F000C00087FFEDCF1092050137C08FEF8093DA
:10F5000007010FC08091080180958093080180E079
:10F5100090E0E0EDF7E03197F1F70196883C910536
:10F52000C1F78091C00087FFEDCF109208011DC088
:10F530008FEF80930A010FC080910B01809580931B
:10F540000B0180E090E0E0EDF7E03197F1F70196F4
:10F55000883C9105C1F78091C00087FFEDCF1092E4
:10F560000B0103C085E292EEEEC98091C00087FFD7
:10F57000FCCF8091C600EAC988E392EEE4C98CE131
:10F5800091EEE1C988249924933011F1943028F444
:10F59000913089F09230B8F408C0953061F195301F
:10F5A000F0F0963009F048C043C02B3109F042C951
:10F5B00091E06BE13FC96227C15DDE4F2883CF52E6
:10F5C000D14092E037C9B22FA0E0622793E032C960
:10F5D000822F90E0A82BB92B622794E02BC92E3004
:10F5E00009F039C3622795E0C05DDE4F19821882A9
:10F5F000C053D1401FC9E1E0F0E0EC0FFD1FC05D3A
:10F60000DE4F08811981C053D140E00FF11F2083E4
:10F610000F5F1F4FC05DDE4F19830883C053D14079
:10F6200062270A171B0709F005C9D80196E002C92D
:10F63000261709F010C303C0973009F0FBC87724E0
:10F640009981933109F412C19431C8F4963009F4C8
:10F65000D8C0973050F4923009F406C1933009F4C1
:10F660006DC0913009F059C253C0913109F477C08F
:10F67000923108F0BBC0903109F04FC2F5C098310B
:10F6800009F487C0993150F4953109F4EFC09531F0
:10F6900008F4C6C1963109F040C2C2C19A3109F4DA
:10F6A0006CC09A3108F491C09B3109F45BC09D3164
:10F6B00009F033C29D81903359F48F81882311F46E
:10F6C0009EE11CC0813011F091E018C098E916C08D
:10F6D000892F807591F0903539F4E0E0F0E089E011
:10F6E0008093570094910AC0983539F4E3E0F0E034
:10F6F00089E080935700949101C090E01A821B82A8
:10F700008D818C831D829E831F8227E030E009C299
:10F710001A8288E08B8381E48C8386E58D8382E581
:10F720008E8389E48F8383E5888780E589878FE5E9
:10F730008A8782E38B872BE030E0F3C18A818139AD
:10F7400041F0823941F0803911F48FE005C080E04A
:10F7500003C082E001C08AE01A828B8344C0772410
:10F76000739482C08D81882311F48EE12CC0813086
:10F7700011F081E028C088E926C01A82E1E0F0E0BB
:10F7800089E08093570084918B831C8224E030E0D1
:10F79000C8C18B81803589F48C81883039F4E2E0EE
:10F7A000F0E089E08093570084910DC0E0E0F0E044
:10F7B00089E080935700849106C0E3E0F0E089E09F
:10F7C0008093570084911A82DFCF8D81836C99E0FA
:10F7D000E1E0F0E0082E90935700E89507B600FCB2
:10F7E000FDCF1A821B8223E030E09BC180EC8A832C
:10F7F000CE5CDE4F188219821A821B82C253D1401E
:10F800008EC18A8190E0A0E0B0E0582F44273327D2
:10F8100022278B8190E0A0E0B0E0DC0199278827C7
:10F82000282B392B4A2B5B2B8D8190E0A0E0B0E098
:10F83000282B392B4A2B5B2B8C8190E0A0E0B0E089
:10F84000BA2FA92F982F8827282B392B4A2B5B2BCF
:10F85000220F331F441F551FC05EDE4F288339839C
:10F860004A835B83C052D1401A8259C13A81C95C34
:10F87000DE4F3883C753D140CA5CDE4F1882C6536F
:10F88000D1408B81C82EDD24CA5CDE4F488159816E
:10F89000C653D140C42AD52A933109F082C0CE5C28
:10F8A000DE4F88819981AA81BB81C253D1408050AB
:10F8B000904CA340B04030F583E0CE5CDE4FE88052
:10F8C000F9800A811B81C253D140F70100935B008C
:10F8D00080935700E89507B600FCFDCFCE5CDE4F65
:10F8E000088119812A813B81C253D14000501F4FAA
:10F8F0002F4F3F4FCE5CDE4F088319832A833B8313
:10F90000C253D140C05EDE4F488159816A817B81FC
:10F91000C052D140DE011B9631E08C9111962C91A2
:10F9200011971296C75CDE4F2883C953D140C85C3B
:10F93000DE4F1882C853D14090E0C85CDE4FE881AA
:10F94000F981C853D1408E2B9F2B0C01FA01609393
:10F950005B0030935700E89511244E5F5F4F6F4F67
:10F960007F4F0EEFE02E0FEFF02ECE0CDF1CC114F8
:10F97000D10499F685E0C05EDE4F088119812A81A5
:10F980003B81C052D140F80120935B008093570027
:10F99000E89507B600FCFDCF81E180935700E8951C
:10F9A00035C0C05EDE4F88819981AA81BB81C0527B
:10F9B000D140B695A795979587957C018601ABE0D8
:10F9C000AA2EB12CAC0EBD1E0BC0D5016D915D01F0
:10F9D000C7010F947FFE0894E11CF11C01501040F8
:10F9E0000115110591F7A60160E070E0440F551F65
:10F9F000661F771FC05EDE4FE880F9800A811B8199
:10FA0000C052D1404E0D5F1D601F711F1A82C05E33
:10FA1000DE4F488359836A837B83C052D1407FC0C5
:10FA2000FA80C55CDE4FF882CB53D140C65CDE4F16
:10FA30001882CA53D1408B81C82EDD24C65CDE4FAC
:10FA400008811981CA53D140C02AD12A1A828981DA
:10FA5000BE016D5F7F4F843121F59601C05EDE4FA0
:10FA6000E880F9800A811B81C052D1400BBFF701A9
:10FA700087919691DB018C9311969C936E5F7F4FDB
:10FA8000D801C7010296A11DB11DC05EDE4F88835B
:10FA90009983AA83BB83C052D14022503040F1F6F3
:10FAA00036C0C05EDE4F288139814A815B81C052F9
:10FAB000D1400894C108D108760100E010E0089414
:10FAC000C11CD11C0894E11CF11C011D111DE20E8A
:10FAD000F31E041F151F21BDBB27A52F942F832FB5
:10FAE00082BD2F5F3F4F4F4F5F4FF89A80B5DB01CC
:10FAF0008D93BD012E153F054007510761F7C05E8C
:10FB0000DE4F288339834A835B83C052D1409601FC
:10FB10002D5F3F4FFB01108204C080EC8A8322E0FE
:10FB200030E08BE18093C6008091C00086FFFCCF5F
:10FB30008091C00080648093C000C15DDE4FF88179
:10FB4000CF52D140F093C6008091C00086FFFCCF19
:10FB50008091C00080648093C000432F3093C60022
:10FB60008091C00086FFFCCF8091C00080648093AC
:10FB7000C000922F2093C6008091C00086FFFCCF6A
:10FB80008091C00080648093C0008EE08093C600A6
:10FB90008091C00086FFFCCF8091C000806480937C
:10FBA000C00065E1C15DDE4FE880CF52D1406E25D7
:10FBB00069276427FE01319610C090819093C6009A
:10FBC0008091C00086FFFCCF31968091C000806498
:10FBD0008093C0006927215030402115310569F715
:10FBE0006093C6008091C00086FFFCCF8091C0006A
:10FBF00080648093C00085B1805885B9772081F4F6
